{
  "_format": "hh-sol-artifact-1",
  "contractName": "TicketNFT",
  "sourceName": "contracts/contract.sol",
  "abi": [
    {
      "inputs": [],
      "stateMutability": "nonpayable",
      "type": "constructor"
    },
    {
      "inputs": [
        {
          "internalType": "address",
          "name": "sender",
          "type": "address"
        },
        {
          "internalType": "uint256",
          "name": "tokenId",
          "type": "uint256"
        },
        {
          "internalType": "address",
          "name": "owner",
          "type": "address"
        }
      ],
      "name": "ERC721IncorrectOwner",
      "type": "error"
    },
    {
      "inputs": [
        {
          "internalType": "address",
          "name": "operator",
          "type": "address"
        },
        {
          "internalType": "uint256",
          "name": "tokenId",
          "type": "uint256"
        }
      ],
      "name": "ERC721InsufficientApproval",
      "type": "error"
    },
    {
      "inputs": [
        {
          "internalType": "address",
          "name": "approver",
          "type": "address"
        }
      ],
      "name": "ERC721InvalidApprover",
      "type": "error"
    },
    {
      "inputs": [
        {
          "internalType": "address",
          "name": "operator",
          "type": "address"
        }
      ],
      "name": "ERC721InvalidOperator",
      "type": "error"
    },
    {
      "inputs": [
        {
          "internalType": "address",
          "name": "owner",
          "type": "address"
        }
      ],
      "name": "ERC721InvalidOwner",
      "type": "error"
    },
    {
      "inputs": [
        {
          "internalType": "address",
          "name": "receiver",
          "type": "address"
        }
      ],
      "name": "ERC721InvalidReceiver",
      "type": "error"
    },
    {
      "inputs": [
        {
          "internalType": "address",
          "name": "sender",
          "type": "address"
        }
      ],
      "name": "ERC721InvalidSender",
      "type": "error"
    },
    {
      "inputs": [
        {
          "internalType": "uint256",
          "name": "tokenId",
          "type": "uint256"
        }
      ],
      "name": "ERC721NonexistentToken",
      "type": "error"
    },
    {
      "inputs": [
        {
          "internalType": "address",
          "name": "owner",
          "type": "address"
        }
      ],
      "name": "OwnableInvalidOwner",
      "type": "error"
    },
    {
      "inputs": [
        {
          "internalType": "address",
          "name": "account",
          "type": "address"
        }
      ],
      "name": "OwnableUnauthorizedAccount",
      "type": "error"
    },
    {
      "anonymous": false,
      "inputs": [
        {
          "indexed": true,
          "internalType": "address",
          "name": "owner",
          "type": "address"
        },
        {
          "indexed": true,
          "internalType": "address",
          "name": "approved",
          "type": "address"
        },
        {
          "indexed": true,
          "internalType": "uint256",
          "name": "tokenId",
          "type": "uint256"
        }
      ],
      "name": "Approval",
      "type": "event"
    },
    {
      "anonymous": false,
      "inputs": [
        {
          "indexed": true,
          "internalType": "address",
          "name": "owner",
          "type": "address"
        },
        {
          "indexed": true,
          "internalType": "address",
          "name": "operator",
          "type": "address"
        },
        {
          "indexed": false,
          "internalType": "bool",
          "name": "approved",
          "type": "bool"
        }
      ],
      "name": "ApprovalForAll",
      "type": "event"
    },
    {
      "anonymous": false,
      "inputs": [
        {
          "indexed": true,
          "internalType": "address",
          "name": "previousOwner",
          "type": "address"
        },
        {
          "indexed": true,
          "internalType": "address",
          "name": "newOwner",
          "type": "address"
        }
      ],
      "name": "OwnershipTransferred",
      "type": "event"
    },
    {
      "anonymous": false,
      "inputs": [
        {
          "indexed": true,
          "internalType": "address",
          "name": "from",
          "type": "address"
        },
        {
          "indexed": true,
          "internalType": "address",
          "name": "to",
          "type": "address"
        },
        {
          "indexed": true,
          "internalType": "uint256",
          "name": "tokenId",
          "type": "uint256"
        }
      ],
      "name": "Transfer",
      "type": "event"
    },
    {
      "inputs": [
        {
          "internalType": "address",
          "name": "to",
          "type": "address"
        },
        {
          "internalType": "uint256",
          "name": "tokenId",
          "type": "uint256"
        }
      ],
      "name": "approve",
      "outputs": [],
      "stateMutability": "nonpayable",
      "type": "function"
    },
    {
      "inputs": [
        {
          "internalType": "address",
          "name": "owner",
          "type": "address"
        }
      ],
      "name": "balanceOf",
      "outputs": [
        {
          "internalType": "uint256",
          "name": "",
          "type": "uint256"
        }
      ],
      "stateMutability": "view",
      "type": "function"
    },
    {
      "inputs": [
        {
          "internalType": "uint256",
          "name": "tokenId",
          "type": "uint256"
        }
      ],
      "name": "getApproved",
      "outputs": [
        {
          "internalType": "address",
          "name": "",
          "type": "address"
        }
      ],
      "stateMutability": "view",
      "type": "function"
    },
    {
      "inputs": [
        {
          "internalType": "address",
          "name": "owner",
          "type": "address"
        },
        {
          "internalType": "address",
          "name": "operator",
          "type": "address"
        }
      ],
      "name": "isApprovedForAll",
      "outputs": [
        {
          "internalType": "bool",
          "name": "",
          "type": "bool"
        }
      ],
      "stateMutability": "view",
      "type": "function"
    },
    {
      "inputs": [
        {
          "internalType": "address",
          "name": "to",
          "type": "address"
        },
        {
          "internalType": "string",
          "name": "_tokenURI",
          "type": "string"
        }
      ],
      "name": "mintTicket",
      "outputs": [],
      "stateMutability": "nonpayable",
      "type": "function"
    },
    {
      "inputs": [],
      "name": "name",
      "outputs": [
        {
          "internalType": "string",
          "name": "",
          "type": "string"
        }
      ],
      "stateMutability": "view",
      "type": "function"
    },
    {
      "inputs": [],
      "name": "nextTokenId",
      "outputs": [
        {
          "internalType": "uint256",
          "name": "",
          "type": "uint256"
        }
      ],
      "stateMutability": "view",
      "type": "function"
    },
    {
      "inputs": [],
      "name": "owner",
      "outputs": [
        {
          "internalType": "address",
          "name": "",
          "type": "address"
        }
      ],
      "stateMutability": "view",
      "type": "function"
    },
    {
      "inputs": [
        {
          "internalType": "uint256",
          "name": "tokenId",
          "type": "uint256"
        }
      ],
      "name": "ownerOf",
      "outputs": [
        {
          "internalType": "address",
          "name": "",
          "type": "address"
        }
      ],
      "stateMutability": "view",
      "type": "function"
    },
    {
      "inputs": [],
      "name": "renounceOwnership",
      "outputs": [],
      "stateMutability": "nonpayable",
      "type": "function"
    },
    {
      "inputs": [
        {
          "internalType": "address",
          "name": "from",
          "type": "address"
        },
        {
          "internalType": "address",
          "name": "to",
          "type": "address"
        },
        {
          "internalType": "uint256",
          "name": "tokenId",
          "type": "uint256"
        }
      ],
      "name": "safeTransferFrom",
      "outputs": [],
      "stateMutability": "nonpayable",
      "type": "function"
    },
    {
      "inputs": [
        {
          "internalType": "address",
          "name": "from",
          "type": "address"
        },
        {
          "internalType": "address",
          "name": "to",
          "type": "address"
        },
        {
          "internalType": "uint256",
          "name": "tokenId",
          "type": "uint256"
        },
        {
          "internalType": "bytes",
          "name": "data",
          "type": "bytes"
        }
      ],
      "name": "safeTransferFrom",
      "outputs": [],
      "stateMutability": "nonpayable",
      "type": "function"
    },
    {
      "inputs": [
        {
          "internalType": "address",
          "name": "operator",
          "type": "address"
        },
        {
          "internalType": "bool",
          "name": "approved",
          "type": "bool"
        }
      ],
      "name": "setApprovalForAll",
      "outputs": [],
      "stateMutability": "nonpayable",
      "type": "function"
    },
    {
      "inputs": [
        {
          "internalType": "bytes4",
          "name": "interfaceId",
          "type": "bytes4"
        }
      ],
      "name": "supportsInterface",
      "outputs": [
        {
          "internalType": "bool",
          "name": "",
          "type": "bool"
        }
      ],
      "stateMutability": "view",
      "type": "function"
    },
    {
      "inputs": [],
      "name": "symbol",
      "outputs": [
        {
          "internalType": "string",
          "name": "",
          "type": "string"
        }
      ],
      "stateMutability": "view",
      "type": "function"
    },
    {
      "inputs": [
        {
          "internalType": "uint256",
          "name": "tokenId",
          "type": "uint256"
        }
      ],
      "name": "tokenURI",
      "outputs": [
        {
          "internalType": "string",
          "name": "",
          "type": "string"
        }
      ],
      "stateMutability": "view",
      "type": "function"
    },
    {
      "inputs": [
        {
          "internalType": "address",
          "name": "from",
          "type": "address"
        },
        {
          "internalType": "address",
          "name": "to",
          "type": "address"
        },
        {
          "internalType": "uint256",
          "name": "tokenId",
          "type": "uint256"
        }
      ],
      "name": "transferFrom",
      "outputs": [],
      "stateMutability": "nonpayable",
      "type": "function"
    },
    {
      "inputs": [
        {
          "internalType": "address",
          "name": "newOwner",
          "type": "address"
        }
      ],
      "name": "transferOwnership",
      "outputs": [],
      "stateMutability": "nonpayable",
      "type": "function"
    }
  ],
  "bytecode": "0x60806040523480156200001157600080fd5b507323618e81e3f5cdf7f54c3d65f7fbc0abf5b21e8f6040518060400160405280600b81526020017f4576656e745469636b65740000000000000000000000000000000000000000008152506040518060400160405280600781526020017f455449434b4554000000000000000000000000000000000000000000000000008152508160009081620000a4919062000486565b508060019081620000b6919062000486565b505050600073ffffffffffffffffffffffffffffffffffffffff168173ffffffffffffffffffffffffffffffffffffffff16036200012e5760006040517f1e4fbdf7000000000000000000000000000000000000000000000000000000008152600401620001259190620005b2565b60405180910390fd5b6200013f816200014660201b60201c565b50620005cf565b6000600660009054906101000a900473ffffffffffffffffffffffffffffffffffffffff16905081600660006101000a81548173ffffffffffffffffffffffffffffffffffffffff021916908373ffffffffffffffffffffffffffffffffffffffff1602179055508173ffffffffffffffffffffffffffffffffffffffff168173ffffffffffffffffffffffffffffffffffffffff167f8be0079c531659141344cd1fd0a4f28419497f9722a3daafe3b4186f6b6457e060405160405180910390a35050565b600081519050919050565b7f4e487b7100000000000000000000000000000000000000000000000000000000600052604160045260246000fd5b7f4e487b7100000000000000000000000000000000000000000000000000000000600052602260045260246000fd5b600060028204905060018216806200028e57607f821691505b602082108103620002a457620002a362000246565b5b50919050565b60008190508160005260206000209050919050565b60006020601f8301049050919050565b600082821b905092915050565b6000600883026200030e7fffffffffffffffffffffffffffffffffffffffffffffffffffffffffffffffff82620002cf565b6200031a8683620002cf565b95508019841693508086168417925050509392505050565b6000819050919050565b6000819050919050565b600062000367620003616200035b8462000332565b6200033c565b62000332565b9050919050565b6000819050919050565b620003838362000346565b6200039b62000392826200036e565b848454620002dc565b825550505050565b600090565b620003b2620003a3565b620003bf81848462000378565b505050565b5b81811015620003e757620003db600082620003a8565b600181019050620003c5565b5050565b601f82111562000436576200040081620002aa565b6200040b84620002bf565b810160208510156200041b578190505b620004336200042a85620002bf565b830182620003c4565b50505b505050565b600082821c905092915050565b60006200045b600019846008026200043b565b1980831691505092915050565b600062000476838362000448565b9150826002028217905092915050565b62000491826200020c565b67ffffffffffffffff811115620004ad57620004ac62000217565b5b620004b9825462000275565b620004c6828285620003eb565b600060209050601f831160018114620004fe5760008415620004e9578287015190505b620004f5858262000468565b86555062000565565b601f1984166200050e86620002aa565b60005b82811015620005385784890151825560018201915060208501945060208101905062000511565b8683101562000558578489015162000554601f89168262000448565b8355505b6001600288020188555050505b505050505050565b600073ffffffffffffffffffffffffffffffffffffffff82169050919050565b60006200059a826200056d565b9050919050565b620005ac816200058d565b82525050565b6000602082019050620005c96000830184620005a1565b92915050565b61225780620005df6000396000f3fe608060405234801561001057600080fd5b50600436106101165760003560e01c8063715018a6116100a2578063a22cb46511610071578063a22cb465146102cd578063b88d4fde146102e9578063c87b56dd14610305578063e985e9c514610335578063f2fde38b1461036557610116565b8063715018a61461026957806375794a3c146102735780638da5cb5b1461029157806395d89b41146102af57610116565b806323b872dd116100e957806323b872dd146101b557806342842e0e146101d15780635388842c146101ed5780636352211e1461020957806370a082311461023957610116565b806301ffc9a71461011b57806306fdde031461014b578063081812fc14610169578063095ea7b314610199575b600080fd5b6101356004803603810190610130919061173e565b610381565b6040516101429190611786565b60405180910390f35b610153610463565b6040516101609190611831565b60405180910390f35b610183600480360381019061017e9190611889565b6104f5565b60405161019091906118f7565b60405180910390f35b6101b360048036038101906101ae919061193e565b610511565b005b6101cf60048036038101906101ca919061197e565b610527565b005b6101eb60048036038101906101e6919061197e565b610629565b005b61020760048036038101906102029190611b06565b610649565b005b610223600480360381019061021e9190611889565b610689565b60405161023091906118f7565b60405180910390f35b610253600480360381019061024e9190611b62565b61069b565b6040516102609190611b9e565b60405180910390f35b610271610755565b005b61027b610769565b6040516102889190611b9e565b60405180910390f35b61029961076f565b6040516102a691906118f7565b60405180910390f35b6102b7610799565b6040516102c49190611831565b60405180910390f35b6102e760048036038101906102e29190611be5565b61082b565b005b61030360048036038101906102fe9190611cc6565b610841565b005b61031f600480360381019061031a9190611889565b61085e565b60405161032c9190611831565b60405180910390f35b61034f600480360381019061034a9190611d49565b610903565b60405161035c9190611786565b60405180910390f35b61037f600480360381019061037a9190611b62565b610997565b005b60007f80ac58cd000000000000000000000000000000000000000000000000000000007bffffffffffffffffffffffffffffffffffffffffffffffffffffffff1916827bffffffffffffffffffffffffffffffffffffffffffffffffffffffff1916148061044c57507f5b5e139f000000000000000000000000000000000000000000000000000000007bffffffffffffffffffffffffffffffffffffffffffffffffffffffff1916827bffffffffffffffffffffffffffffffffffffffffffffffffffffffff1916145b8061045c575061045b82610a1d565b5b9050919050565b60606000805461047290611db8565b80601f016020809104026020016040519081016040528092919081815260200182805461049e90611db8565b80156104eb5780601f106104c0576101008083540402835291602001916104eb565b820191906000526020600020905b8154815290600101906020018083116104ce57829003601f168201915b5050505050905090565b600061050082610a87565b5061050a82610b0f565b9050919050565b610523828261051e610b4c565b610b54565b5050565b600073ffffffffffffffffffffffffffffffffffffffff168273ffffffffffffffffffffffffffffffffffffffff16036105995760006040517f64a0ae9200000000000000000000000000000000000000000000000000000000815260040161059091906118f7565b60405180910390fd5b60006105ad83836105a8610b4c565b610b66565b90508373ffffffffffffffffffffffffffffffffffffffff168173ffffffffffffffffffffffffffffffffffffffff1614610623578382826040517f64283d7b00000000000000000000000000000000000000000000000000000000815260040161061a93929190611de9565b60405180910390fd5b50505050565b61064483838360405180602001604052806000815250610841565b505050565b610651610d80565b600060075490506007600081548092919061066b90611e4f565b919050555061067a8382610e07565b6106848183610e25565b505050565b600061069482610a87565b9050919050565b60008073ffffffffffffffffffffffffffffffffffffffff168273ffffffffffffffffffffffffffffffffffffffff160361070e5760006040517f89c62b6400000000000000000000000000000000000000000000000000000000815260040161070591906118f7565b60405180910390fd5b600360008373ffffffffffffffffffffffffffffffffffffffff1673ffffffffffffffffffffffffffffffffffffffff168152602001908152602001600020549050919050565b61075d610d80565b6107676000610e4a565b565b60075481565b6000600660009054906101000a900473ffffffffffffffffffffffffffffffffffffffff16905090565b6060600180546107a890611db8565b80601f01602080910402602001604051908101604052809291908181526020018280546107d490611db8565b80156108215780601f106107f657610100808354040283529160200191610821565b820191906000526020600020905b81548152906001019060200180831161080457829003601f168201915b5050505050905090565b61083d610836610b4c565b8383610f10565b5050565b61084c848484610527565b6108588484848461107f565b50505050565b606060086000838152602001908152602001600020805461087e90611db8565b80601f01602080910402602001604051908101604052809291908181526020018280546108aa90611db8565b80156108f75780601f106108cc576101008083540402835291602001916108f7565b820191906000526020600020905b8154815290600101906020018083116108da57829003601f168201915b50505050509050919050565b6000600560008473ffffffffffffffffffffffffffffffffffffffff1673ffffffffffffffffffffffffffffffffffffffff16815260200190815260200160002060008373ffffffffffffffffffffffffffffffffffffffff1673ffffffffffffffffffffffffffffffffffffffff16815260200190815260200160002060009054906101000a900460ff16905092915050565b61099f610d80565b600073ffffffffffffffffffffffffffffffffffffffff168173ffffffffffffffffffffffffffffffffffffffff1603610a115760006040517f1e4fbdf7000000000000000000000000000000000000000000000000000000008152600401610a0891906118f7565b60405180910390fd5b610a1a81610e4a565b50565b60007f01ffc9a7000000000000000000000000000000000000000000000000000000007bffffffffffffffffffffffffffffffffffffffffffffffffffffffff1916827bffffffffffffffffffffffffffffffffffffffffffffffffffffffff1916149050919050565b600080610a9383611236565b9050600073ffffffffffffffffffffffffffffffffffffffff168173ffffffffffffffffffffffffffffffffffffffff1603610b0657826040517f7e273289000000000000000000000000000000000000000000000000000000008152600401610afd9190611b9e565b60405180910390fd5b80915050919050565b60006004600083815260200190815260200160002060009054906101000a900473ffffffffffffffffffffffffffffffffffffffff169050919050565b600033905090565b610b618383836001611273565b505050565b600080610b7284611236565b9050600073ffffffffffffffffffffffffffffffffffffffff168373ffffffffffffffffffffffffffffffffffffffff1614610bb457610bb3818486611438565b5b600073ffffffffffffffffffffffffffffffffffffffff168173ffffffffffffffffffffffffffffffffffffffff1614610c4557610bf6600085600080611273565b6001600360008373ffffffffffffffffffffffffffffffffffffffff1673ffffffffffffffffffffffffffffffffffffffff168152602001908152602001600020600082825403925050819055505b600073ffffffffffffffffffffffffffffffffffffffff168573ffffffffffffffffffffffffffffffffffffffff1614610cc8576001600360008773ffffffffffffffffffffffffffffffffffffffff1673ffffffffffffffffffffffffffffffffffffffff168152602001908152602001600020600082825401925050819055505b846002600086815260200190815260200160002060006101000a81548173ffffffffffffffffffffffffffffffffffffffff021916908373ffffffffffffffffffffffffffffffffffffffff160217905550838573ffffffffffffffffffffffffffffffffffffffff168273ffffffffffffffffffffffffffffffffffffffff167fddf252ad1be2c89b69c2b068fc378daa952ba7f163c4a11628f55a4df523b3ef60405160405180910390a4809150509392505050565b610d88610b4c565b73ffffffffffffffffffffffffffffffffffffffff16610da661076f565b73ffffffffffffffffffffffffffffffffffffffff1614610e0557610dc9610b4c565b6040517f118cdaa7000000000000000000000000000000000000000000000000000000008152600401610dfc91906118f7565b60405180910390fd5b565b610e218282604051806020016040528060008152506114fc565b5050565b80600860008481526020019081526020016000209081610e459190612043565b505050565b6000600660009054906101000a900473ffffffffffffffffffffffffffffffffffffffff16905081600660006101000a81548173ffffffffffffffffffffffffffffffffffffffff021916908373ffffffffffffffffffffffffffffffffffffffff1602179055508173ffffffffffffffffffffffffffffffffffffffff168173ffffffffffffffffffffffffffffffffffffffff167f8be0079c531659141344cd1fd0a4f28419497f9722a3daafe3b4186f6b6457e060405160405180910390a35050565b600073ffffffffffffffffffffffffffffffffffffffff168273ffffffffffffffffffffffffffffffffffffffff1603610f8157816040517f5b08ba18000000000000000000000000000000000000000000000000000000008152600401610f7891906118f7565b60405180910390fd5b80600560008573ffffffffffffffffffffffffffffffffffffffff1673ffffffffffffffffffffffffffffffffffffffff16815260200190815260200160002060008473ffffffffffffffffffffffffffffffffffffffff1673ffffffffffffffffffffffffffffffffffffffff16815260200190815260200160002060006101000a81548160ff0219169083151502179055508173ffffffffffffffffffffffffffffffffffffffff168373ffffffffffffffffffffffffffffffffffffffff167f17307eab39ab6107e8899845ad3d59bd9653f200f220920489ca2b5937696c31836040516110729190611786565b60405180910390a3505050565b60008373ffffffffffffffffffffffffffffffffffffffff163b1115611230578273ffffffffffffffffffffffffffffffffffffffff1663150b7a026110c3610b4c565b8685856040518563ffffffff1660e01b81526004016110e5949392919061216a565b6020604051808303816000875af192505050801561112157506040513d601f19601f8201168201806040525081019061111e91906121cb565b60015b6111a5573d8060008114611151576040519150601f19603f3d011682016040523d82523d6000602084013e611156565b606091505b50600081510361119d57836040517f64a0ae9200000000000000000000000000000000000000000000000000000000815260040161119491906118f7565b60405180910390fd5b805181602001fd5b63150b7a0260e01b7bffffffffffffffffffffffffffffffffffffffffffffffffffffffff1916817bffffffffffffffffffffffffffffffffffffffffffffffffffffffff19161461122e57836040517f64a0ae9200000000000000000000000000000000000000000000000000000000815260040161122591906118f7565b60405180910390fd5b505b50505050565b60006002600083815260200190815260200160002060009054906101000a900473ffffffffffffffffffffffffffffffffffffffff169050919050565b80806112ac5750600073ffffffffffffffffffffffffffffffffffffffff168273ffffffffffffffffffffffffffffffffffffffff1614155b156113e05760006112bc84610a87565b9050600073ffffffffffffffffffffffffffffffffffffffff168373ffffffffffffffffffffffffffffffffffffffff161415801561132757508273ffffffffffffffffffffffffffffffffffffffff168173ffffffffffffffffffffffffffffffffffffffff1614155b801561133a57506113388184610903565b155b1561137c57826040517fa9fbf51f00000000000000000000000000000000000000000000000000000000815260040161137391906118f7565b60405180910390fd5b81156113de57838573ffffffffffffffffffffffffffffffffffffffff168273ffffffffffffffffffffffffffffffffffffffff167f8c5be1e5ebec7d5bd14f71427d1e84f3dd0314c0f7b2291e5b200ac8c7c3b92560405160405180910390a45b505b836004600085815260200190815260200160002060006101000a81548173ffffffffffffffffffffffffffffffffffffffff021916908373ffffffffffffffffffffffffffffffffffffffff16021790555050505050565b611443838383611518565b6114f757600073ffffffffffffffffffffffffffffffffffffffff168373ffffffffffffffffffffffffffffffffffffffff16036114b857806040517f7e2732890000000000000000000000000000000000000000000000000000000081526004016114af9190611b9e565b60405180910390fd5b81816040517f177e802f0000000000000000000000000000000000000000000000000000000081526004016114ee9291906121f8565b60405180910390fd5b505050565b61150683836115d9565b611513600084848461107f565b505050565b60008073ffffffffffffffffffffffffffffffffffffffff168373ffffffffffffffffffffffffffffffffffffffff16141580156115d057508273ffffffffffffffffffffffffffffffffffffffff168473ffffffffffffffffffffffffffffffffffffffff16148061159157506115908484610903565b5b806115cf57508273ffffffffffffffffffffffffffffffffffffffff166115b783610b0f565b73ffffffffffffffffffffffffffffffffffffffff16145b5b90509392505050565b600073ffffffffffffffffffffffffffffffffffffffff168273ffffffffffffffffffffffffffffffffffffffff160361164b5760006040517f64a0ae9200000000000000000000000000000000000000000000000000000000815260040161164291906118f7565b60405180910390fd5b600061165983836000610b66565b9050600073ffffffffffffffffffffffffffffffffffffffff168173ffffffffffffffffffffffffffffffffffffffff16146116cd5760006040517f73c6ac6e0000000000000000000000000000000000000000000000000000000081526004016116c491906118f7565b60405180910390fd5b505050565b6000604051905090565b600080fd5b600080fd5b60007fffffffff0000000000000000000000000000000000000000000000000000000082169050919050565b61171b816116e6565b811461172657600080fd5b50565b60008135905061173881611712565b92915050565b600060208284031215611754576117536116dc565b5b600061176284828501611729565b91505092915050565b60008115159050919050565b6117808161176b565b82525050565b600060208201905061179b6000830184611777565b92915050565b600081519050919050565b600082825260208201905092915050565b60005b838110156117db5780820151818401526020810190506117c0565b60008484015250505050565b6000601f19601f8301169050919050565b6000611803826117a1565b61180d81856117ac565b935061181d8185602086016117bd565b611826816117e7565b840191505092915050565b6000602082019050818103600083015261184b81846117f8565b905092915050565b6000819050919050565b61186681611853565b811461187157600080fd5b50565b6000813590506118838161185d565b92915050565b60006020828403121561189f5761189e6116dc565b5b60006118ad84828501611874565b91505092915050565b600073ffffffffffffffffffffffffffffffffffffffff82169050919050565b60006118e1826118b6565b9050919050565b6118f1816118d6565b82525050565b600060208201905061190c60008301846118e8565b92915050565b61191b816118d6565b811461192657600080fd5b50565b60008135905061193881611912565b92915050565b60008060408385031215611955576119546116dc565b5b600061196385828601611929565b925050602061197485828601611874565b9150509250929050565b600080600060608486031215611997576119966116dc565b5b60006119a586828701611929565b93505060206119b686828701611929565b92505060406119c786828701611874565b9150509250925092565b600080fd5b600080fd5b7f4e487b7100000000000000000000000000000000000000000000000000000000600052604160045260246000fd5b611a13826117e7565b810181811067ffffffffffffffff82111715611a3257611a316119db565b5b80604052505050565b6000611a456116d2565b9050611a518282611a0a565b919050565b600067ffffffffffffffff821115611a7157611a706119db565b5b611a7a826117e7565b9050602081019050919050565b82818337600083830152505050565b6000611aa9611aa484611a56565b611a3b565b905082815260208101848484011115611ac557611ac46119d6565b5b611ad0848285611a87565b509392505050565b600082601f830112611aed57611aec6119d1565b5b8135611afd848260208601611a96565b91505092915050565b60008060408385031215611b1d57611b1c6116dc565b5b6000611b2b85828601611929565b925050602083013567ffffffffffffffff811115611b4c57611b4b6116e1565b5b611b5885828601611ad8565b9150509250929050565b600060208284031215611b7857611b776116dc565b5b6000611b8684828501611929565b91505092915050565b611b9881611853565b82525050565b6000602082019050611bb36000830184611b8f565b92915050565b611bc28161176b565b8114611bcd57600080fd5b50565b600081359050611bdf81611bb9565b92915050565b60008060408385031215611bfc57611bfb6116dc565b5b6000611c0a85828601611929565b9250506020611c1b85828601611bd0565b9150509250929050565b600067ffffffffffffffff821115611c4057611c3f6119db565b5b611c49826117e7565b9050602081019050919050565b6000611c69611c6484611c25565b611a3b565b905082815260208101848484011115611c8557611c846119d6565b5b611c90848285611a87565b509392505050565b600082601f830112611cad57611cac6119d1565b5b8135611cbd848260208601611c56565b91505092915050565b60008060008060808587031215611ce057611cdf6116dc565b5b6000611cee87828801611929565b9450506020611cff87828801611929565b9350506040611d1087828801611874565b925050606085013567ffffffffffffffff811115611d3157611d306116e1565b5b611d3d87828801611c98565b91505092959194509250565b60008060408385031215611d6057611d5f6116dc565b5b6000611d6e85828601611929565b9250506020611d7f85828601611929565b9150509250929050565b7f4e487b7100000000000000000000000000000000000000000000000000000000600052602260045260246000fd5b60006002820490506001821680611dd057607f821691505b602082108103611de357611de2611d89565b5b50919050565b6000606082019050611dfe60008301866118e8565b611e0b6020830185611b8f565b611e1860408301846118e8565b949350505050565b7f4e487b7100000000000000000000000000000000000000000000000000000000600052601160045260246000fd5b6000611e5a82611853565b91507fffffffffffffffffffffffffffffffffffffffffffffffffffffffffffffffff8203611e8c57611e8b611e20565b5b600182019050919050565b60008190508160005260206000209050919050565b60006020601f8301049050919050565b600082821b905092915050565b600060088302611ef97fffffffffffffffffffffffffffffffffffffffffffffffffffffffffffffffff82611ebc565b611f038683611ebc565b95508019841693508086168417925050509392505050565b6000819050919050565b6000611f40611f3b611f3684611853565b611f1b565b611853565b9050919050565b6000819050919050565b611f5a83611f25565b611f6e611f6682611f47565b848454611ec9565b825550505050565b600090565b611f83611f76565b611f8e818484611f51565b505050565b5b81811015611fb257611fa7600082611f7b565b600181019050611f94565b5050565b601f821115611ff757611fc881611e97565b611fd184611eac565b81016020851015611fe0578190505b611ff4611fec85611eac565b830182611f93565b50505b505050565b600082821c905092915050565b600061201a60001984600802611ffc565b1980831691505092915050565b60006120338383612009565b9150826002028217905092915050565b61204c826117a1565b67ffffffffffffffff811115612065576120646119db565b5b61206f8254611db8565b61207a828285611fb6565b600060209050601f8311600181146120ad576000841561209b578287015190505b6120a58582612027565b86555061210d565b601f1984166120bb86611e97565b60005b828110156120e3578489015182556001820191506020850194506020810190506120be565b8683101561210057848901516120fc601f891682612009565b8355505b6001600288020188555050505b505050505050565b600081519050919050565b600082825260208201905092915050565b600061213c82612115565b6121468185612120565b93506121568185602086016117bd565b61215f816117e7565b840191505092915050565b600060808201905061217f60008301876118e8565b61218c60208301866118e8565b6121996040830185611b8f565b81810360608301526121ab8184612131565b905095945050505050565b6000815190506121c581611712565b92915050565b6000602082840312156121e1576121e06116dc565b5b60006121ef848285016121b6565b91505092915050565b600060408201905061220d60008301856118e8565b61221a6020830184611b8f565b939250505056fea26469706673582212209c3e587bb51af79a070688947140f36ad07953dc7c0fea1e24a3b008775eecf364736f6c63430008180033",
  "linkReferences": {},
  "deployedLinkReferences": {}
}